:020000040800F2
:10000000480F002041020008793200081D2A00082C
:10001000912D0008751A0008274D00080000000007
:10002000000000000000000000000000E53D0008A6
:1000300029280008000000005D360008B1420008D1
:100040005B0200085B0200085B0200085B0200081C
:100050005B0200085B0200085B0200085B0200080C
:100060005B0200085B0200085B0200085B020008FC
:100070005B0200085B0200085B0200085B020008EC
:100080005B0200085B0200085B020008191C000804
:10009000E11B00085B0200085B0200085B0200082D
:1000A0005B0200085B0200085B0200085B020008BC
:1000B000454300085B0200085B0200085B02000881
:1000C0005B0200085B0200085B0200085B0200089C
:1000D0005B020008954B00089D4B0008A54B0008EB
:1000E0005B0200085B0200085B0200085B0200087C
:1000F0005B0200085B0200085B0200085B0200086C
:100100005B0200085B020008E14300085B02000894
:100110005B0200085B0200085B0200085B0200084B
:100120005B0200085B0200085B0200085B0200083B
:100130005B0200085B0200085B020008791C0008F3
:10014000351C00085B0200085B0200085B02000827
:100150005B0200085B0200085B0200085B0200080B
:100160005B0200085B0200085B0200085B020008FB
:100170005B0200085B0200085B0200085B020008EB
:100180005B0200085B02000800F002F800F049F88A
:100190000AA090E8000C82448344AAF10107DA45E2
:1001A00001D100F03EF8AFF2090EBAE80F0013F0EB
:1001B000010F18BFFB1A43F001031847B064000099
:1001C000D0640000103A24BF78C878C1FAD852072A
:1001D00024BF30C830C144BF04680C6070470000C1
:1001E0000023002400250026103A28BF78C1FBD840
:1001F000520728BF30C148BF0B607047662905F021
:100200006485002070471FB505F055FD00F0E2FB46
:1002100004000020002105F031FAE0601FBD10B598
:1002200010BD00F0D7FC1146FFF7EDFF05F036F9E1
:1002300000F0F5FC03B4FFF7F2FF03BC00F038FD5B
:100240000948804709480047FEE7FEE7FEE7FEE76A
:10025000FEE7FEE7FEE7FEE7FEE7FEE704480549A6
:10026000054A064B70470000B542000889010008A6
:1002700048090020480F0020480B0020480B0020B0
:10028000DFED300AB5EEC00A60EE200ABDEEE01ADE
:1002900011EE100AF1EE10FA38BF401E00EE100AFF
:1002A0009FED291AB8EEC00A70EEC00A20EE810A4E
:1002B000BCEEC00A10EE100A00EE100A0028B8EEDC
:1002C000C00A10EE810AB8BF002004DBB0F5807FC1
:1002D000C8BF4FF480701D4960EE000AB6EE001AE8
:1002E000DFED1C2A9FED1A2A60EE011A60EE225AF9
:1002F00020EE813A20EE022A21EEA01A01EB8000C6
:1003000073EE655A62EE202AB7EE006A33EE003AC9
:10031000D0EC043A76EE611A71EE600A35EEE20A2C
:1003200033EE413A32EEC21A70EEA10A20EE230AF1
:1003300064EE831A04EE200A45EE011A31EE800ABB
:100340007047000083F9223E00008043D05C000823
:10035000ABAA2A3EABAAAA3EDFED300AB5EEC00A30
:1003600060EE200ABDEEE01A11EE100AF1EE10FA6E
:1003700038BF401E00EE100A9FED291AB8EEC00AE1
:1003800070EEC00A20EE810ABCEEC00A10EE100A20
:1003900000EE100A0028B8EEC00A10EE810AB8BFBD
:1003A000002004DBB0F5807FC8BF4FF480701D498A
:1003B00060EE000AB6EE001ADFED1C2A9FED1A2A45
:1003C00060EE011A60EE225A20EE813A20EE022AF7
:1003D00021EEA01A01EB800073EE655A62EE202A2E
:1003E000B7EE006A33EE003AD0EC043A76EE611ACA
:1003F00071EE600A35EEE20A33EE413A32EEC21A8D
:1004000070EEA10A20EE230A64EE831A04EE200A9D
:1004100045EE011A31EE800A7047000083F9223E52
:1004200000008043E0600008ABAA2A3EABAAAA3EC7
:100430000FB41CB5074B06AA7B446946009005988B
:1004400000F0AFFA0020694600F0BEFA1CBC5DF86F
:1004500014FB00008D0500002DE9F0410E46044616
:10046000002020622046E168884730B3252805D067
:10047000D4E901219047206A401CF2E7E168204658
:1004800000278847050018D0A5F14100192802D897
:1004900020354FF400673246294620462760FFF793
:1004A000ADFE40B1012804D0F61D26F0070608363F
:1004B000D8E7361DD6E72846DAE7206ABDE8F0819E
:1004C00010B5203AC0F00B80B1E81850203AA0E8EF
:1004D0001850B1E81850A0E81850BFF4F5AF5FEA23
:1004E000027C24BFB1E81850A0E8185044BF18C9D6
:1004F00018C0BDE810405FEA827C24BF51F8043B7D
:1005000040F8043B08BF7047D20728BF31F8023BD0
:1005100048BF11F8012B28BF20F8023B48BF00F864
:10052000012B70474FF0000200B5134694469646E3
:10053000203922BFA0E80C50A0E80C50B1F12001F6
:10054000BFF4F7AF090728BFA0E80C5048BF0CC0A4
:100550005DF804EB890028BF40F8042B08BF704702
:1005600048BF20F8022B11F0804F18BF00F8012B74
:10057000704770477047704770472DE9FF4F0C4632
:100580001E464FF0FF378BB0D2E90001DDF86080E6
:100590000A908A46C1F30A5505B93D46002108462E
:1005A0004FF00000BAF1000F00F4400005DA00EB54
:1005B00080004FF4400101EA50004FEA9059B9F130
:1005C000010F00DDB9460A9850EA4A000ED044F601
:1005D0001050A5F2FF3545432F14B8F1000F1ED07F
:1005E0007542291E1EDDC9F100021CE0B8F1010FA1
:1005F0004FF0000001D0302103E0F24305E0215428
:10060000401CB042FBDB30460022002121540B99F4
:10061000C1F80880C1E900200FB0BDE8F08FBD1B14
:100620006D1CDEE74A4600DA694206A800F05CFA73
:1006300006AB93E8070003AB83E8070050460A992E
:1006400000F03DFB8DE80700A0F500501F3800903A
:100650000398002D0ADD42F21F014A460844002398
:1006600003A90390684600F0A6FD09E0A0F500503C
:100670004A461F38002303A90390684600F0B0FDE6
:100680008DE807000004000C03D04FF0FF30410854
:1006900000E01046B8F1000F03D00022009215468A
:1006A0001EE0751E05D400F099F9303262556D1EBA
:1006B000F9D5B3460122084302D000227F1C04E092
:1006C0002078302801D100227F1E002A099784D08B
:1006D0001DE0112D07DA00F081F9303262556D1CF2
:1006E00050EA0102F5D1084302D00098C8B10EE0EB
:1006F0000021681E05E0235C625C63542254401EA6
:10070000491C8142F7DBAB46A81B401E0990002024
:1007100004F80B000B98099AC0F80880C0E9002B78
:100720007AE711264FF0000857E72DE9F04F884689
:100730000446D21D22F0070191B0D1E90001CDE9B4
:100740000A0104F0DFFC02460B98C00F01D02D20F7
:1007500007E02068810701D52B2002E0202101EA73
:10076000C000032A099001D0072A05DB0346414651
:10077000204600F079F90BE12078800601D5E06988
:1007800000E00620B8F1650F814606D0B8F1660F8B
:1007900018D0B8F1670F70D131E00020B9F1110F16
:1007A000009001DB112301E009F101030AAA01A96C
:1007B0000CA8FFF7E2FEDDE90C70002609F1010547
:1007C000834647E001204B4600904FF000470AAABD
:1007D00001A90CA8FFF7D1FEDDE90DB00C995D462B
:1007E000002610B909F101000D18B9EB050003D47A
:1007F000C0F1FF3609F10105A5EB09002BE0B9F1C5
:10080000010F01DA4FF001090020B9F1110F00903A
:10081000484601DD112300E003460AAA01A90CA8FD
:10082000FFF7ABFEDDE90C704D46002683462078CD
:1008300000070AD4AB4500DA5D4601A8012D04DDAE
:10084000411911F8011C302907D04F4502DA17F180
:10085000040F04DA012082460FE06D1EEEE7002F40
:1008600002DCED1B3E4403E0781CA84200DD7D1C49
:10087000B81B00F1010A4FF000472078000703D4AD
:10088000AA4501DB4FF0FF3A0021B7F1004F0DF10F
:1008900043088DF8431024D002202B23002F01DAC7
:1008A0007F422D230A21021EA0F1010000DC5FB16E
:1008B00097FBF1FC97FBF1F201FB1C7C17460CF156
:1008C000300C08F801CDEEE7A8F101000370218893
:1008D000090501D5452100E06521A0F1010800F8D6
:1008E000011C09980FA9A1EB0807FF1D00B1012009
:1008F000411901EBEA70A1693844081A401EA06151
:100900002078C00602D42046AFF30080099828B1B1
:10091000D4E901219047206A401C20622078C0065B
:1009200022D52046AFF300801EE0002E04DBB34545
:1009300002DD01A8805D00E03020D4E9012190476C
:10094000206A401C2062761CAAF101005FEA000ABE
:100950000AD100F03FF8C0680168405CD4E9012189
:100960009047206A401C2062281EA5F10105DCDCAE
:1009700007E0D4E9012118F8010B9047206A401CD8
:100980002062381EA7F10107F3DC2046AFF3008098
:10099000032011B041E6000001694A1C0261087899
:1009A000704700B58FB0CDE90131002105910549AF
:1009B0007944CDE9031011466846FFF74DFD0FB0AD
:1009C00000BD0000E5FFFFFF0A6802F8010B0A60A6
:1009D00070470000004870470809002030B5B0F1AA
:1009E0000A024FEA900E71F100034EEA817EB0EBED
:1009F0000E0061EB91014FEA101E4EEA017E10EBF2
:100A00000E0041EB11114FEA102E4EEA016E10EB71
:100A10000E0041EB11214FEA104E4EEA014E10EB51
:100A20000E0041EB1141401841F100014FEAD000A6
:100A300040EA41704FEAD10110EB80054FEA810492
:100A400044EA907444EB01046D1944EB0404521B16
:100A5000A3414FF0000348BF0A3200D530BD401C0F
:100A600041F1000130BD00002DE9F0411F46044670
:100A700003260168072A01F4006004DB08B116A50B
:100A800005E016A503E008B115A500E015A521F0C5
:100A900010002060A069C01EA0610FB1401EA061BF
:100AA0002046AFF300804FB1D4E90121384690478A
:100AB000206A401C2062C01C206206E0206AFAE71F
:100AC000D4E9012115F8010B9047761EF8D2204693
:100AD000AFF30080BDE8F0814E414E006E616E00C4
:100AE000494E4600696E66002DE9F047814616467C
:100AF0008AB0354878440DC88DE80D0032487844F6
:100B0000801C03AC0DC884E80D0041F69B300844FE
:100B1000372190FBF1F290FBF1F5A5F1800501FB87
:100B200012041B3C02D56442012000E00020DFF8E3
:100B300098A080460027FA44AAF1BE0A0EE0E0071A
:100B40000AD03246684607EB470101230AEB8101D0
:100B500000F046FB8DE8070064107F1C002CEED1EE
:100B6000194F7F44AE3F19E0E80715D007EB04109A
:100B70000DF1180A90E80E008AE80E00C068F042F5
:100B800001D1981908903246012306A903A800F064
:100B900027FB03AB83E807006D10641C002DE3D135
:100BA0004FF0010332466946B8F1000F03A802D0A6
:100BB00000F001FB01E000F013FBC9E90001C9F8F6
:100BC00008200AB0BDE8F087705A0000004870475E
:100BD000E80800207546FFF7F9FFAE4605006946B4
:100BE000534620F00700854618B020B5FFF736FBC6
:100BF000BDE820404FF000064FF000074FF000081E
:100C00004FF0000B21F00701AC46ACE8C009ACE89E
:100C1000C009ACE8C009ACE8C0098D46704710B502
:100C20000446AFF300802046BDE81040FFF702BB4A
:100C30004FF0013C50F8042B51F8043B9A4221D16B
:100C4000A2EB0C03934313EACC1317D150F8042BF7
:100C500051F8043B9A4215D1A2EB0C03934313EADB
:100C6000CC130BD150F8042B51F8043B9A4209D114
:100C7000A2EB0C03934313EACC13DBD04FF000003C
:100C8000704700BFD01A01BAB1FA81F101F0180122
:100C900022FA01F0CB40C1F12001DBB2C0B2C01A90
:100CA0002CFA01F3D11A914311EAC311E6D170472E
:100CB00001491820ABBEFEE72600020070475FEA3C
:100CC000400C08BF91F0000F4FEA8C234FEAC1227D
:100CD00043EA51514FEA1C5018BF00F5F0404FEA6B
:100CE000300018BF41F000415FEA6C5C00F02980E1
:100CF000BCF1FF3F08BF40F080407047130C06BFB7
:100D000012044FF0100C4FF0000C130E04BF12022F
:100D10000CF1080C130F04BF12010CF1040C930F1B
:100D200004BF92000CF1020CD30F04BF52000CF16F
:100D3000010C11464FF00002A0F11F00A0EB0C00C7
:100D4000704711F0004F08BF704731F000413FF489
:100D5000D5AF0B0C06BF09044FF0100C4FF0000C80
:100D60000B0E04BF09020CF1080C0B0F04BF0901A4
:100D70000CF1040C8B0F04BF89000CF1020CCB0F9B
:100D800004BF49000CF1010CCCF12003A0EB0C00D6
:100D900022FA03F302FA0CF241EA030100F1010026
:100DA000704720F07F4C80EA030023F07F47ACEBD4
:100DB000070303F57C5300F0004003F1FF032DE926
:100DC00080494FEA154B09B44FEA144325EA0B4E0C
:100DD00024EA03480FF2042606EB132749083E785D
:100DE0005FEA320203FB0667C7F5000707FB06F65A
:100DF0004FEA54374FEAD64606F1020607FB066C67
:100E0000CCF1005C4FEA1C472CEA074C07FB06F4C8
:100E10000CFB06F504EB15464FEA961634BF00208E
:100E20004FF000404FEAD13706FB07FC4FEA1C4C5D
:100E30000CFB0BF7D21B03FB0CF761EB07010CFB60
:100E40000EF7B0EB074072EB17420CFB08F734BF0C
:100E5000A2EB0742B2EB074261EB17414FEA0C44A9
:100E60004FEA910706FB07FC4FEA1C4C0CFB0BF703
:100E7000B0EBC74072EB573203FB0CF734BFA2EB69
:100E8000C742B2EBC74261EB57310CFB0EF7B0EB38
:100E9000C70072EB57720CFB08F734BFA2EBC70216
:100EA000B2EBC70261EB5771039F4FEA816141EAE0
:100EB000921104EBCC044FEAD1374FEA826206FB71
:100EC00007FC42EA90124FEA80604FEA1C4C0CFB90
:100ED0000BF7D21B03FB0CF761EB07010CFB0EF7C2
:100EE000B0EB074072EB17420CFB08F734BFA2EBE4
:100EF0000742B2EB074261EB17414FEA8C554FEACC
:100F0000910704EB9C2406FB07FC4FEA1C4C0CFBEE
:100F10000BF7B0EBC74072EB573203FB0CF734BF53
:100F2000A2EBC742B2EBC74261EB57310CFB0EF7A5
:100F3000B0EBC70072EB57720CFB08F734BFA2EBA3
:100F4000C702B2EBC70261EB577115EB4C254FEAB4
:100F5000816141EA92114FEA82624FEAD13742EA57
:100F6000901206FB07FC44F100044FEA80604FEA50
:100F70001C4C0CFB0BF7D21B03FB0CF761EB0701BE
:100F80000CFB0EF7B0EB074072EB17420CFB08F7B7
:100F900034BFA2EB0742B2EB074261EB174115EBFE
:100FA0001C154FEA813141EA92414FEA823242EA0E
:100FB00090424FEA80304FEA0C7644F1000448EA50
:100FC00003434EEA0B484FF0000EB2EB080C71EBF6
:100FD000030724BF624639464EEB0E0E4FF0000B5E
:100FE0000018524149414BEB0B0BB2EB080C71EB73
:100FF00003077BF1000B24BF624639464EEB0E0E11
:101000004FF0000B0018524149414BEB0B0BB2EB78
:10101000080C71EB03077BF1000B24BF62463946D5
:101020004EEB0E0E51EA020718BF46F0010616EB12
:101030000E7655F1000254F1000103D5BDE8890197
:10104000BDE80088BDE88901BDE80048B6195241F5
:1010500041EB0101A3F10103704780807F7E7D7C1D
:101060007B7A7978777676757473727171706F6E3A
:101070006E6D6C6C6B6A6A696868676666656464E5
:10108000636362616160605F5F5E5E5D5D5C5C5B6F
:101090005B5A5A59595858575756565555555454DE
:1010A000535352525251515050504F4F4F4E4E4D3C
:1010B0004D4D4C4C4C4B4B4B4A4A4A494949484888
:1010C00048474747474646464545454444444443C8
:1010D00043434342424242414141002B9C4630D46B
:1010E00077002BD01CB54FEA370703B44FF0100040
:1010F0004FF01001BAF1000F06D0BCF1000FDCBFB9
:1011000040F0080040F008014FF000000FBCBDE8BF
:1011100010400BF1010BBBF1010F08BF5FEA17078D
:1011200022BF12F1010211F101014FF0004143F120
:10113000000300F0004043EA00007047F9D357086D
:10114000D0E746EA064613F1400F4FEA16461FDD88
:1011500013F1200FDFBF16430A46002120335B4204
:10116000BED0C3F1200746EA064602FA07F74FEA67
:10117000164646EA0706C3F1200722FA03F201FAEF
:1011800007F721FA03F14FF0000342EA0702A7E74D
:1011900046EA020646EA06464FEA164646EA0106CF
:1011A000BCBF46EA0646360C4FF000034FF0000283
:1011B0004FF0000194E72DE9804C9A46934670B4B5
:1011C00091E8380007C831EA400C48BF34EA430CC4
:1011D00003D5FFF7E6FDFFF780FFF0BCBDE8008C0C
:1011E0002DE9804C9A46934670B491E8380007C8C0
:1011F00010F0804F08BF13F0804F03D100F005F8C6
:10120000FFF76BFFF0BCBDE8008C20F07F4780EA61
:10121000030023F07F4C07EB0C03A3F57C5300F095
:101220000040A3F1FE0392F0000F00F0B38095F0B0
:10123000000F00F077802DE901494FEA11404FEA95
:10124000144621EA004800FB06FC24EA064708FB96
:1012500006F607FB08F800FB07F718EB06484CEB0F
:10126000164C4FEA124B18EB07484FEA15464CEB69
:10127000174022EA0B4E0BFB06FC25EA06470EFB45
:1012800006F607FB0EFE0BFB07F71EEB064E4CEBBC
:10129000164C4FF000061EEB074E4CEB174B18EBAD
:1012A0000B0840F1000018EB0E0B58EB000840F162
:1012B00000008F1A4FF000013CBFC943661B14BFEA
:1012C000B5EB040C00213CBFC943F61B4FEA1744A1
:1012D0004EEA8E0E27EA04454FEA1C4704FB0762DC
:1012E0002CEA074C05FB07F70CFB05F604FB0CFC8E
:1012F00016EB074642EB174216EB0C4642EB1C423C
:101300001BEB060658EB0202414146EA9E0601D558
:10131000BDE80189B619524141EB0101A3F1010376
:10132000BDE801894FEA14454FEA114724EA054612
:1013300021EA074C05FB07F406FB07F70CFB06F157
:1013400005FB0CFC11EB074144EB17444FEA124735
:1013500011EB0C4144EB1C4422EA074C05FB07F25D
:1013600006FB07F70CFB06F605FB0CFC16EB074625
:1013700042EB174216EB0C4642EB1C456A1854F13F
:10138000000148BF7047B619524141EB0101A3F17A
:101390000103704795F0000F37D04FEA11424FEA32
:1013A000144721EA024624EA074C02FB07F106FB38
:1013B00007F70CFB06F402FB0CFC14EB074441EBB3
:1013C00017414FEA154714EB0C4441EB1C4125EA49
:1013D000074C02FB07F506FB07F70CFB06F602FBC2
:1013E0000CFC16EB074645EB174516EB0C4645EB98
:1013F0001C42121951F1000148BF7047B619524101
:1014000041EB0101A3F1010370474FEA14454FEA94
:10141000114724EA054621EA074C05FB07F106FBC4
:1014200007F70CFB06F24FF0000605FB0CFC12EB75
:10143000074241EB174112EB0C4251EB1C4148BFF4
:101440007047921841EB0101A3F1010370470000BE
:1014500010B5044621460F4802F0CAF812E000BF5A
:1014600040210D4803F0BAFB0128F9D10948027B5D
:10147000007B401C074B187318468068815C064847
:1014800003F04DFC0348007B0249497B8842E6DBC0
:1014900010BD0000C80000200048004010B5044600
:1014A0001B480078401C1A490870084600786428D8
:1014B00028DA94ED000ADFED170AB4EEE00AF1EE47
:1014C00010FA0BDD94ED000ADFED130A30EE600A2E
:1014D00084ED000A2046FFF7E1FF13E094ED000AD7
:1014E000DFED0E0AB4EEE00AF1EE10FA0AD294ED46
:1014F000000ADFED090A30EE200A84ED000A2046DA
:10150000FFF7CCFF02480078401E0149087010BD6B
:1015100034000020000034430000B443000034C312
:101520001CB50121082002F0CDF9012000908DF8B2
:10153000040000208DF8060001208DF8070003202C
:101540008DF805006946034801F0E2F900F082FADF
:101550001CBD0000000C024008B54FF48050431041
:10156000084A4FF47A710090074800F003FC4020CD
:101570002023064A4FF47A710090054800F0FAFBE8
:1015800008BD00000000024000640040000402406A
:101590000068004010B500F01BF8FFF7C1FF00F035
:1015A00037FA10BD10B502F085FE4FF4A06001F0CF
:1015B000A1FEA82000F0BEF9FFF7ECFF642001F0C7
:1015C00034F9FFF7C9FF00F0ABF900F017FA10BDCE
:1015D0001CB50121042002F075F901208DF80400EA
:1015E00000208DF8060001208DF8070003208DF8FB
:1015F00005000120009069460E4801F089F902209B
:10160000009069460B4801F083F904200090694678
:10161000084801F07DF9082000906946054801F06E
:1016200077F901F0BDFA01F0CBFA01F0D9FA01F037
:10163000DFFA1CBD0008024000B587B00121084652
:1016400002F040F90121102002F06CF90722092173
:10165000254801F0A5F907220A21234801F0A0F945
:1016600002208DF804008DF8050000208DF806009A
:1016700001208DF807004002009069461A4801F0E9
:1016800047F94FF4806000906946174801F040F92F
:101690004FF4E13003900020ADF81000ADF81200D7
:1016A000ADF81400ADF818000C20ADF8160003A931
:1016B0000E4803F0C5FA012240F225510B4803F011
:1016C0009AFA25208DF8080001208DF809008DF880
:1016D0000A008DF80B0002A801F0D0FD012103489B
:1016E00003F070FA07B000BD000002400010014096
:1016F00000B587B00121084602F0E4F80121480452
:1017000002F0F0F807220221264801F049F90722E9
:101710000321244801F044F902208DF804008DF8DB
:10172000050000208DF8060001208DF80700042038
:10173000009069461B4801F0EBF8082000906946CC
:10174000184801F0E5F8184803900020ADF81000A3
:101750004FF40050ADF81200C010ADF81400002096
:10176000ADF818000420ADF8160003A90F4803F0E7
:1017700067FA012240F225510C4803F03CFA26207A
:101780008DF8080001208DF809008DF80A008DF809
:101790000B0002A801F072FD0121044803F012FAC7
:1017A00007B000BD00000240A086010000440040D8
:1017B00000B587B00121082002F084F801218804D7
:1017C00002F090F807220821254801F0E9F80722E5
:1017D0000921234801F0E4F802208DF804008DF877
:1017E000050000208DF8060001208DF8070000029A
:1017F000009069461A4801F08BF84FF40070009091
:101800006946174801F084F84FF4E1300390002056
:10181000ADF81000ADF81200ADF81400ADF81800E6
:101820000C20ADF8160003A90E4803F009FA0122B6
:1018300040F225510B4803F0DEF927208DF808000F
:1018400001208DF809008DF80A008DF80B0002A820
:1018500001F014FD0121034803F0B4F907B000BD05
:10186000000C02400048004000B587B00121042070
:1018700002F028F80121202002F054F80822062165
:10188000254801F08DF808220721234801F088F847
:1018900002208DF804008DF8050000208DF8060068
:1018A00001208DF807004020009069461A4801F099
:1018B0002FF8802000906946174801F029F84FF46E
:1018C000E13003900020ADF81000ADF81200ADF843
:1018D0001400ADF818000C20ADF8160003A90F484D
:1018E00003F0AEF9012240F225510C4803F083F9D0
:1018F00047208DF8080001208DF809008DF80A00B6
:101900008DF80B0002A801F0B9FC0121034803F097
:1019100059F907B000BD0000000802400014014062
:1019200010B5FFF789FEFFF7E3FEFFF741FFFFF772
:101930009BFF10BD10B504466FF0040002F0A4FC3C
:10194000E00805490860084600684FF47A7148438A
:101950000249086010BD00000000002004000020C3
:101960001FB50121084601F0BDFF41F2873002900A
:101970005320ADF804000020ADF80C00ADF80600CF
:1019800001A94FF0804002F085FD1C208DF8000079
:1019900002208DF8010001208DF802008DF803006F
:1019A000684601F06BFC1FBD1FB50121082001F046
:1019B00099FF42F20F7002905320ADF8040000200E
:1019C000ADF80C00ADF8060001210B4802F02AFD2D
:1019D00001A9094802F05EFD32208DF800000220C6
:1019E0008DF8010000208DF8020001208DF8030021
:1019F000684601F043FC1FBD000C004010B5FFF726
:101A0000AFFFFFF7D1FF02F0C9FC02F0FDFC10BDF3
:101A10001CB51020009001208DF8040003208DF8E3
:101A2000050000208DF806006946094800F070FFA7
:101A3000202000906946064800F06AFF1021044803
:101A400000F0D1FF2021024800F0CDFF1CBD0000B6
:101A5000000C024010B50121014800F0C4FF10BD88
:101A6000000C024010B50121014800F0BEFF10BD7E
:101A7000000C024000BFFEE72DE9F041044620784B
:101A8000401EC5B203220021284603F04EF900286B
:101A900048D005EB4500244931F83070207BE17ACD
:101AA00040EA012005EB45011F4A22F83100A17BE5
:101AB000607B41EA002000B205EB450102EBC10169
:101AC0004880217CE07B41EA002000B205EB450123
:101AD00002EBC1018880607C05EB450102EBC1018E
:101AE000887105EB4500114631F83000C01B06B285
:101AF000B6F5805F03DBA6F5005006B205E016F5EB
:101B0000805F02DA06F5005006B205EB4500064993
:101B100001EBC0008068304405EB4501024A02EB4E
:101B2000C1018860BDE8F081240300202DE9F04167
:101B300004462078401FC5B203220021284603F046
:101B4000F4F8002848D005EB4500244931F83070FE
:101B5000207BE17A40EA012005EB45011F4A22F88B
:101B60003100A17B607B41EA002000B205EB45011A
:101B700002EBC1014880217CE07B41EA002000B2F9
:101B800005EB450102EBC1018880607C05EB450156
:101B900002EBC101887105EB4500114631F83000B8
:101BA000C01B06B2B6F5805F03DBA6F5005006B297
:101BB00005E016F5805F02DA06F5005006B205EB87
:101BC0004500064901EBC0008068304405EB450143
:101BD000024A02EBC1018860BDE8F0818403002065
:101BE00000B585B002210B4800F0A2FA78B10421BB
:101BF000084800F06BF80421064800F04BF86A46EC
:101C00000021044800F0B7FB6846FFF78FFF05B0DE
:101C100000BD00000064004010B50121044800F040
:101C200087FA18B10121024800F050F810BD0000F9
:101C30000064004000B585B002210D4800F078FA3C
:101C400098B104210A4800F041F80A49084800F018
:101C500021F86A460021064800F08DFB6846FFF730
:101C60000BFF00F093FC00F0E1FC05B000BD0000AC
:101C7000006800400800003210B50121044800F05F
:101C800057FA18B10121024800F020F810BD0000F9
:101C90000068004000220C4B994202D1002383616E
:101CA00011E0C1F3130201F000730BB1C2600AE04E
:101CB00001F080630BB1026105E001F000630BB13C
:101CC000826000E0426070477000F030B1F5007F44
:101CD0003AD00FDC202928D006DC01291CD00429A9
:101CE0001DD0082940D11DE0402921D0B1F5807FC9
:101CF0003AD126E0B1F5004F31D006DCB1F5806F66
:101D000025D0B1F5006F2FD124E0B1F5803F12D07E
:101D1000B1F5003F28D111E0154A826025E0082284
:101D2000C26022E01022C2601FE0082202611CE0B3
:101D30001022026119E00822426016E0102242607F
:101D400013E00422426010E0042242600DE004220D
:101D500042600AE0002282610422426005E0002223
:101D600082610422426000E000BF00BF70470000B3
:101D7000010101002DE9F04F8BB004460F461546D6
:101D80001E46DDF850804FF00009CA46CB46202E93
:101D900005D0B6F5006F05D14FF00B0903E04FF009
:101DA000050900E000BF00BFB8F1400F05D0B8F54D
:101DB000805F05D14FF00C0A03E04FF0060A00E007
:101DC00000BF00BF8848204418B1B0F5806F18D11B
:101DD00009E04FF0090B00208DF8120001214806A0
:101DE00001F080FD0EE04FF0090B0E208DF812007F
:101DF0000121480601F076FD0121880601F072FDFF
:101E000000E000BF00BF7948284418B1B0F5806FEA
:101E10000AD104E00121084601F054FD05E001214A
:101E2000022001F04FFD00E000BF00BF46EA0800BD
:101E3000099002208DF8280003208DF82900002049
:101E40008DF82A0001208DF82B0009A9284600F002
:101E50005FFD5A464946284600F0A2FD5A465146C3
:101E6000284600F09DFD204600F0C2F800208DF8C5
:101E70001E0001208DF81F0000208DF820008DF835
:101E800021008DF822008DF823008DF81A008DF8BE
:101E90001B0008208DF81C0003208DF81D007D2FED
:101EA00023D008DC0A2F0FD0142F12D0322F14D0D9
:101EB000642F2AD115E0FA2F1BD0B7F5FA7F1CD07A
:101EC000B7F57A7F21D11CE04FF49670ADF8180079
:101ED0001CE09620ADF8180018E03C20ADF8180082
:101EE00014E01E20ADF8180010E01820ADF818001E
:101EF0000CE00C20ADF8180008E00620ADF8180042
:101F000004E00320ADF8180000E000BF00BF06A900
:101F1000204600F0A6F900208DF8130001208DF86E
:101F200014000020ADF80800ADF80A00ADF80C0070
:101F3000ADF80E00ADF8100001208DF8150002A8D4
:101F400000F072F82848204418B1B0F5806F3BD1FA
:101F50001BE014208DF8040002208DF805000120FC
:101F60008DF806008DF8070001A801F087F913200D
:101F70008DF8040001208DF805008DF806008DF81D
:101F8000070001A801F07AF91FE040208DF8040055
:101F900002208DF8050000208DF8060001208DF844
:101FA000070001A801F06AF93F208DF80400012024
:101FB0008DF8050000208DF8060001208DF807003F
:101FC00001A801F05BF900E000BF00BF012202217F
:101FD000204600F03DF901221146204600F038F974
:101FE0000BB0BDE8F08F0000009CFFBF0000FEBFFB
:101FF00010B504460B48844209D10121480601F07E
:1020000081FC00214FF0007001F07CFC08E0012110
:10201000880601F077FC00214FF0806001F072FC2F
:1020200010BD00000064004010B50021837A012239
:1020300002FA03F13D4A126842F001023B4B1A607A
:102040003A4A1C3212688A43384B1C331A60027BAE
:10205000CAB9364A0C3212688A43344B0C331A60C0
:102060004288C38842EA0343304A4032847A42F8C5
:1020700034300288838842EA03432C4A4032847A0F
:1020800002EBC4025360027B012A19D1274A0C32A9
:1020900012680A43254B0C331A604288038842EACF
:1020A0000343224A4032847A42F83430C28883881B
:1020B00042EA03431D4A4032847A02EBC402536071
:1020C000C27A3AB9194A121D12688A43174B1B1D6E
:1020D0001A6006E0154A121D12680A43134B1B1DB5
:1020E0001A60028932B9114A143212688A430F4BBE
:1020F00014331A600289012A06D10C4A143212687C
:102100000A430A4B14331A60427B012A06D1074A5C
:102110001C3212680A43054B1C331A60034A1268CA
:1021200022F00102014B1A6010BD00000066004061
:1021300070B504460D46002660692840002871D01D
:10214000B5F5807F5CD010DC082D35D006DC012D84
:1021500020D0022D24D0042D72D127E0102D31D0B3
:10216000202D35D0402D6BD138E0B5F5004F60D033
:1021700009DCB5F5007F49D0B5F5806F4CD0B5F5D9
:10218000006F5DD14FE0B5F5803F2DD0B5F5003F34
:1021900056D12FE0A0682D4900F030FB064651E0F3
:1021A000E068032100F02AFB06464BE0E0680821C6
:1021B00000F024FB064645E0E068102100F01EFB1D
:1021C00006463FE02069032100F018FB064639E08F
:1021D0002069082100F012FB064633E02069102137
:1021E00000F00CFB06462DE06068082100F006FBBD
:1021F000064627E06068102100F000FB064621E05B
:10220000A069012100F0FAFA06461BE0A06902214C
:1022100000F0F4FA064615E0A069042100F0EEFA99
:1022200006460FE00FE0A069702100F0E7FA0646CD
:1022300008E06068042100F0E1FA064602E0FFE7EA
:10224000002600BF00E00026304670BD01010100FD
:102250001AB143690B43436102E043698B43436115
:10226000704730B5024600200023146824F00204B1
:102270001460146844F00104146000E05B1C5468AE
:1022800004F001041CB94FF6FF74A342F6D1546860
:1022900004F001040CB900206CE08C79012C04D10D
:1022A000146844F08004146003E0146824F080048F
:1022B0001460CC79012C04D1146844F040041460FB
:1022C00003E0146824F0400414600C7A012C04D15B
:1022D000146844F02004146003E0146824F020041F
:1022E00014604C7A012C04D1146844F0100414607A
:1022F00003E0146824F0100414608C7A012C04D1DB
:10230000146844F00804146003E0146824F008041E
:102310001460CC7A012C04D1146844F004041460D5
:1023200003E0146824F0040414608C78A407CD78CA
:1023300044EA05640D7944EA05444D7944EA0554BC
:102340000D886D1E2C43D461146824F001041460C0
:10235000002300E05B1C546804F001041CB14FF63C
:10236000FF74A342F6D1546804F001040CB10020BC
:1023700000E0012030BD10B500F5D87303EB011368
:102380001B6803F004031372137A53B900F5D87372
:1023900003EB01131B6840F2FF7404EA535313600C
:1023A00009E000F5D87303EB01131B686FF060447C
:1023B00004EAD303536000F5D87303EB01131B68E1
:1023C00003F00203537200F5D87303EB01135B684B
:1023D00003F00F03937200F5D87303EB01135B68EE
:1023E0001B0AD37400F5D87303EB01139B68D372F7
:1023F00000F5D87303EB01139B681C0A147300F5F6
:10240000D87303EB01139B681C0C547300F5D8734D
:1024100003EB01139B681B0E937300F5D87303EB5A
:102420000113DB68D37300F5D87303EB0113DB688A
:102430001C0A147400F5D87303EB0113DB681C0C41
:10244000547400F5D87303EB0113DB681B0E93740F
:1024500021B9C36843F02003C36003E0036943F07C
:102460002003036110BD10B502460020936803F0FD
:102470008063B3F1806F00D110E0936803F00063D4
:10248000B3F1006F01D1012008E0936803F080539D
:10249000B3F1805F01D1022000E00420042874D051
:1024A00002F5C07303EB00131B6803F0010402F58F
:1024B000C07303EB00131C600B7A7BB94B7A0C885A
:1024C00043EA445302F5C07404EB00142468234328
:1024D00002F5C07404EB0014236010E00B7A4C6822
:1024E00043EAC4034C7A234302F5C07404EB00149E
:1024F0002468234302F5C07404EB001423608B7A34
:1025000003F00F038B7202F5C07303EB00135B68DB
:1025100023F00F0402F5C07303EB00135C6002F5B7
:10252000C07303EB00135B688C7A234302F5C0741D
:1025300004EB001463608B7B1C064B7B44EA034472
:102540000B7B44EA0323CC7A234302F5C07404EBEB
:102550000014A3608B7C1C064B7C44EA03440B7C78
:1025600044EA0323CC7B234302F5C07404EB00143C
:10257000E36002F5C07303EB00131B6843F0010432
:1025800002F5C07303EB00131C6010BD10B52DEDF8
:10259000028B234890ED020AB8EEC00ADFED210A53
:1025A00080EE201AB0EE418AB0EE480A02F042FFF7
:1025B0001D4948641A4890ED080AB8EEC00ADFEDDC
:1025C000190A80EE201AB0EE418AB0EE480A02F0F5
:1025D00031FF15490864124890ED0E0AB8EEC00AA2
:1025E000DFED100A80EE201AB0EE418AB0EE480A04
:1025F00002F020FF0C498864094890ED140AB8EEF7
:10260000C00ADFED080A80EE201AB0EE418AB0EE73
:10261000480A02F00FFF0449C864BDEC028B10BDEC
:10262000240300200428A549B807002000B5124A59
:10263000516C124A906802F0B3FC0F4880ED030A17
:102640000246116C0D4A106A02F0AAFC0A4880ED9D
:10265000070A0246916C094A906B02F0A1FC0648F9
:1026600080ED0B0A0246D16C044A106D02F098FC12
:10267000014880ED0F0A00BDB807002024030020A8
:1026800000B52DED0C8B83B0F0EE408AB0EE608A81
:10269000F0EE419AB0EE61AAF0EE42AA002001905D
:1026A00002909FED510AF0EE40CA9FED4F0A8DED6A
:1026B000000A9FED4D0AB0EE409A9FED4C0AC8EE1D
:1026C000000A9FED4B0A20EE800AB0EE40DAFDF7DB
:1026D000D7FD20EE280AB0EE40CA9FED440AC8EEAE
:1026E000000A9FED430A20EE800AB0EE40DAFDF7C3
:1026F00033FE20EE280AF0EE40CADFED3C0A89EEF8
:10270000A00ADFED3B0A20EE200ADFED3A0A20EEB8
:10271000200AB0EE40BA3AEE2A0A8DED000A684669
:10272000FEF7BCFE9DED000ADFED300A80EE201AB8
:102730009FED2F0A21EE000AB0EE40DAFDF7A0FD72
:10274000F0EE4C0A4BEE000AF0EE60BA9DED000A86
:102750009FED261AC0EE010A9FED250A20EE800AA1
:10276000B0EE40DAFDF7F8FDF0EE6C0A4BEE000A31
:10277000B0EE609A6BEEAB0AB0EE600A09EE090AA1
:10278000B5EEC00AF1EE10FA04DDF1EEC00ACDEDAF
:10279000010A04E0DFED140ACDED010A00BF9DED52
:1027A000010ADFED150AB4EEE00AF1EE10FA10DDD1
:1027B000F0EE6B0AB0EE490A02F0D0FC9FED0C1A65
:1027C000C0EE010A9FED090A20EE800A8DED020A93
:1027D00001E08DED028A9DED010ADDED020A03B0F4
:1027E000BDEC0C8B00BD0000000000000000344375
:1027F000DB0F4940A450D7430AD7233C02460020B0
:1028000002EA01030BB1012000E00020704710B57F
:10281000FEF7C8FEFFF726F9322000F006F8FFF7B2
:1028200019F901F00BFA10BD704770B504464FF46A
:102830000770B4FBF0F6B4FBF0F100FB114504E0C7
:102840004FF4077000F008F8761E002EF8D115B18D
:10285000284600F001F870BD0146114A12684A434B
:102860004FF0E0235A6100229A611A46126942F041
:1028700001021A6100BF4FF0E022106900F001026E
:102880001AB100F48032002AF5D04FF0E02212692C
:1028900022F001024FF0E0231A6100229A61704792
:1028A0000400002010B504460021204600F018FC6A
:1028B000A4F20120082823D2DFE800F01314151633
:1028C0000405060700BF00BF00BF601F0D49087068
:1028D0000020097801EB41010B4A02EBC101C881DC
:1028E0000EE000BF00BF00BF601E06490870002058
:1028F000097801EB4101054A02EBC101C88100BF23
:1029000000BF10BD7D0000208403002024030020B0
:10291000F0B50A4600210023002400BF3DE0012558
:1029200005FA01F3156805EA03049C4234D10568F1
:102930004F000326BE40B543056015794E00B540F3
:102940000668354305601579012D02D01579022DF1
:1029500016D185684F000326BE40B5438560557982
:102960004E00B540866835438560456801268E4037
:10297000B5434560456896798E40B6B235434560AB
:10298000C5684F000326BE40B543C560D5794E00EB
:10299000B540C6683543C560491C1029BFD3F0BD9A
:1029A000F0B5002300244D07ED0E02FA05F3CE101A
:1029B00000F1200555F826504E07F70E0F26BE40B1
:1029C000B543CF1000F1200646F82750CE1000F195
:1029D000200555F8265045EA0304CE1000F12005E5
:1029E00045F82640F0BD4183704701837047426936
:1029F0004A4042617047000010B5064890ED000A59
:102A0000054880ED000AD0ED000AB0EE600A01F042
:102A1000D1F810BDDC020020F402002000BFFEE768
:102A20000020064908700649088048808880C880D0
:102A30000881488188818873C8737047B40000207A
:102A4000A408002010B52DED068B82B00446F0EEF0
:102A5000408A002008EE100A9FED410A8DED010A20
:102A60009FED400AC8EE800ABDEEE00A10EE100AA3
:102A70009FED3D0AC8EE800ABDEEE00A10EE101A86
:102A8000401A08EE100A94ED010AF8EEC80A9FED0C
:102A9000361A00EE810A84ED010A94ED010A30EE47
:102AA000680A8DED010A01A8FEF7F8FC019803F011
:102AB00091F841EC1A0BB0EE4A0AF0EE6A0A02F005
:102AC00075FCB0EE409AF0EE609A9FED280B53EC47
:102AD000102B51EC190B02F05DFF3CD294ED000A73
:102AE000B1EE400A84ED000A94ED010ADFED1D0A03
:102AF00030EE200A84ED010AD4ED010AB8EEC81ABE
:102B0000DFED191A9FED170A01EE210AF4EEC00A53
:102B1000F1EE10FA08DD94ED010ADFED130A30EE54
:102B2000600A84ED010A16E0D4ED010AB8EEC81A75
:102B3000DFED0D1A9FED0B0A11EE210AF4EEC00A2B
:102B4000F1EE10FA07D294ED010ADFED070A30EE3C
:102B5000200A84ED010A02B0BDEC068B10BD000016
:102B600000000000000034430000B44300000000F7
:102B7000008056400020044981F8E000002102480E
:102B800080F8E11070470000B807002000B5002170
:102B9000024880F8E810FFF7EDFF00BDB8070020FD
:102BA00010B501210148FFF720FF10BD00080240C9
:102BB00010B501210148FFF71AFF10BD00080240BF
:102BC00010B502210148FFF710FF10BD00080240B8
:102BD00010B502210148FFF70AFF10BD00080240AE
:102BE00010B504210148FFF700FF10BD00080240A6
:102BF00010B508210148FFF7F8FE10BD000802409B
:102C000010B50BA10C4801F020FA0A20FFF70DFEC9
:102C100007A1094801F019FA0A20FFF706FE04A1EE
:102C2000054801F012FA0A20FFF7FFFD10BD000071
:102C300041435430000000000010014010B540F244
:102C400025514C4801F0CAFF01287DD140F22551A1
:102C5000484801F0A8FF474802F05CF84649087070
:102C60004648007805287ED2DFE800F00311263DB3
:102C70004B00414800780D2805D140480078401CA1
:102C80003E49087002E000203C4908706FE03A4875
:102C900000780A2808D100203949087037480078A0
:102CA000401C3649087006E0334800780D2802D0F1
:102CB0000020324908705AE02F4800783149304AE4
:102CC000127888542E480078401C2D490870084618
:102CD0000078182806DB0020087028480078401C7F
:102CE0002649087043E0244800780A2805D1234883
:102CF0000078401C2149087002E000201F4908703C
:102D000035E01D4800780D2829D11E4890ED000AB5
:102D10001D4880ED000A1B4890ED010A1A4880ED1D
:102D2000010A184890ED020A174880ED020A15487A
:102D300090ED030A144880ED030A124890ED040A4E
:102D4000114880ED040A01E012E00CE00D4890ED1E
:102D5000050A0D4880ED050A01200C490870002085
:102D60000649087003E000200449087000BF00BF56
:102D700010BD000000100140580000205900002044
:102D80005A0000200C030020DC0200203C00002040
:102D900000BFFEE700B5032140F2012000F0A2F8D9
:102DA000032140F2022000F09DF8032140F20320AD
:102DB00000F098F803214FF4017000F093F802211D
:102DC00040F2052000F08EF8022140F2062000F0CB
:102DD00089F8022140F2072000F084F802214FF424
:102DE000027000F07FF89FED3C1ADFED3B0A9FED8B
:102DF0003B0A40F2012000F0C5F89FED371ADFEDE5
:102E0000360A9FED360A40F2022000F0BBF89FED33
:102E1000321ADFED310A9FED310A40F2032000F053
:102E2000B1F89FED2D1ADFED2C0A9FED2C0A4FF41F
:102E3000017000F0A7F89FED281ADFED290AB1EE26
:102E4000040A40F2012000F073F99FED231ADFED30
:102E5000240AB1EE040A40F2022000F069F99FED65
:102E60001E1ADFED1F0AB1EE040A40F2032000F043
:102E70005FF99FED191ADFED1A0AB1EE040A4FF45B
:102E8000017000F055F99FED141AF6EE000AB1EE4C
:102E9000040A40F2052000F04BF99FED0F1AF6EE00
:102EA000000AB1EE040A40F2062000F041F99FED5D
:102EB0000A1AF6EE000AB1EE040A40F2072000F00A
:102EC00037F99FED051AF6EE000AB1EE040A4FF449
:102ED000027000F02DF900BD00000000CDCCCC3D0B
:102EE000CDCC4C3DA0F20122082A1DD2DFE802F031
:102EF000040506071011121300BF00BF00BFA0F2A7
:102F0000012202EB4202094B03EBC20211730BE0F8
:102F100000BF00BF00BFA0F2052202EB4202044B3B
:102F200003EBC202117300BF00BF704724030020EF
:102F300084030020A0F20122082A1DD2DFE802F05B
:102F4000040506071011121300BF00BF00BFA0F256
:102F5000012202EB4202094B03EBC20251610BE07A
:102F600000BF00BF00BFA0F2052202EB4202044BEB
:102F700003EBC202516100BF00BF70472403002071
:102F800084030020A0F2012108294BD2DFE801F0E0
:102F9000040506074B4C4D4E00BF00BF00BFA0F21A
:102FA000012101EB810202EBC101434A02EB8101E5
:102FB00081ED000AA0F2012101EB810202EBC101C7
:102FC0003D4A02EB8101C1ED010AA0F2012101EBB2
:102FD000810202EBC101384A02EB810181ED021A44
:102FE000DFED361AA0F2012101EB810202EBC101F3
:102FF000314A02EB8101C1ED071ADFED311AA0F26F
:103000000121C1EBC1012F4A02EBC101C1ED031A3D
:10301000DFED2D1AA0F20121C1EBC10102EBC101CC
:10302000C1ED0A1A46E000BF00BF00BFA0F20521B3
:1030300001EB810202EBC101244A02EB810181ED27
:10304000000AA0F2052101EB810202EBC1011F4A37
:1030500002EB8101C1ED010AA0F2052101EB810221
:1030600002EBC101194A02EB810181ED021ADFED89
:10307000181AA0F2052101EB810202EBC101134AEB
:1030800002EB8101C1ED071ADFED121AA0F2052152
:10309000C1EBC101104A02EBC101C1ED031ADFED22
:1030A0000F1AA0F20521C1EBC10102EBC101C1ED74
:1030B0000A1A00BF00BF7047E403002000409C468E
:1030C00000007A448405002000409C45B4040020A0
:1030D0000000FA44000048426406002000803B459E
:1030E000A0F20122082A1DD2DFE802F0040506073B
:1030F0001011121300BF00BF00BFA0F2012202EBAB
:103100004202094B03EBC20211820BE000BF00BF79
:1031100000BFA0F2052202EB4202044B03EBC20205
:10312000118200BF00BF70472403002084030020E9
:10313000A0F20121082949D2DFE801F004050607C1
:10314000494A4B4C00BF00BF00BFA0F20121C1EBB8
:10315000C101424A02EBC10181ED000AA0F2012146
:10316000C1EBC10102EBC101C1ED010AA0F20121D5
:10317000C1EBC10102EBC10181ED021ADFED381A8A
:10318000A0F20121C1EBC10102EBC101C1ED081A9E
:10319000DFED341AA0F20121C1EBC10102EBC10144
:1031A000C1ED031ADFED301AA0F20121C1EBC1011C
:1031B00002EBC101C1ED071ADFED2C1AA0F20121CB
:1031C000C1EBC10102EBC101C1ED0A1A44E000BF2D
:1031D00000BF00BFA0F20521C1EBC101244A02EBF0
:1031E000C10181ED000AA0F20521C1EBC10102EB92
:1031F000C101C1ED010AA0F20521C1EBC10102EB41
:10320000C10181ED021ADFED1B1AA0F20521C1EB0D
:10321000C10102EBC101C1ED081ADFED121AA0F2E3
:103220000521C1EBC10102EBC101C1ED031ADFEDC4
:103230000E1AA0F20521C1EBC10102EBC101C1EDE3
:10324000071ADFED0A1AA0F20521C1EBC10102EB5A
:10325000C101C1ED0A1A00BF00BF704784050020FC
:103260000080BB45000048420000164400803B45FA
:103270006406002000401C467047000070B5002125
:1032800000230F22C4781CB3174C246804F4E064B4
:10329000C4F5E064C4F30721C1F10404E3B20A41B8
:1032A00044789C40E1B28478144021430C07210EFD
:1032B0000E4C05786155047804F01F050124AC40DC
:1032C00005786D11AD0005F1E025C5F8004109E074
:1032D000047804F01F050124AC40054D06787611F2
:1032E00045F8264070BD00000CED00E000E400E071
:1032F00080E100E002490143024A1160704700008A
:103300000000FA050CED00E09FED170A174880ED6C
:10331000000A9FED150A164880ED000A9FED120A7B
:10332000144880ED000A9FED100A134880ED000A52
:1033300000211248416400201049086400210F4810
:103340008164C1649FED080A80ED030A9FED060ABF
:1033500080ED070A9FED040A80ED0B0A9FED020A3B
:1033600080ED0F0A704700000000000024000020DC
:10337000280000202C00002030000020B80700208A
:1033800000B52DED048B8DB0B0EE408AF0EE608A72
:10339000B0EE419A202105A8FDF7C4F8FFF72CFBF9
:1033A000F0EE409AB0EE692ADFED2D1AB0EE491A20
:1033B000F0EE680AB0EE480AFFF762F98DED070AF1
:1033C000CDED080AFFF718FBF0EE409AB0EE692A3F
:1033D000DFED241AB0EE491AF0EE680AB0EE480AA2
:1033E000FFF74EF98DED050ACDED060AFFF704FB58
:1033F000F0EE409AB0EE692ADFED1B1AB0EE491AE2
:10340000F0EE680AB0EE480AFFF73AF98DED090AC6
:10341000CDED0A0AFFF7F0FAF0EE409AB0EE692A15
:10342000DFED121AB0EE491AF0EE680AB0EE480A63
:10343000FFF726F98DED0B0ACDED0C0A202205A928
:103440000B48FDF73DF809A80FC88DE80F0005A847
:103450000FC801F0DFFD0DB0BDEC048B00BD000016
:10346000000007C300000743000034C200003442DC
:103470006C08002010B5044694ED050AD4ED040A4A
:1034800030EE600A264880ED000A94ED0C0A84EDC7
:103490000D0A94ED0B0A84ED0C0A90ED000A84ED00
:1034A0000B0A94ED0B0AD4ED0C0A30EE600AD4ED51
:1034B000000A20EE200AD4ED010A94ED0B1A00EE6A
:1034C000810AD4ED0B0A94ED0C1AF0EE001A41EECD
:1034D000C10A94ED0D1A70EE810A94ED021A01EE04
:1034E000200A104880ED000AD4ED070AB0EE600A09
:1034F00001F072FF94ED060A0A48D0ED000A30EEA2
:10350000200A094880ED000AD4ED080AB0EE600AEE
:1035100001F062FF044890ED000A84ED060A10BD38
:10352000180000201C0000202000002010B50446D8
:1035300094ED050AD4ED040A30EE600A284880EDC7
:10354000000A94ED0A0AD0ED000A30EEC00A2548C0
:1035500080ED000A94ED0B0A84ED0C0A94ED0A0A42
:1035600084ED0B0A1E4890ED000A84ED0A0A94EDE2
:10357000080AD0ED000A30EE200A1B4880ED000A50
:10358000D4ED090AB0EE600A01F026FF164890ED6E
:10359000000A84ED080A94ED000A1148D0ED000AF3
:1035A00020EE200AD4ED010A0F4890ED001A00EE3B
:1035B000810AD4ED020A0B4890ED001A00EEC10A10
:1035C0000A4880ED000AD4ED070AB0EE600A01F067
:1035D00003FF064890ED000A84ED060A10BD0000C6
:1035E00008000020100000200C0000201400002023
:1035F00070B50B4600210122447885682C708478D0
:103600001CB10222847885686C70002105E05C5C46
:103610008E188568AC554C1CE1B204788C42F6DCFF
:10362000C4788E188568AC554C1CE1B2047924B975
:1036300000248E188568AC5509E004798E188568D9
:10364000AC554C1CE1B200248E188568AC5504784A
:1036500004EB420444730024047370BD70470000FF
:1036600070B504460D4629462046FFF763FCA4F2D8
:10367000012008287DD2DFE800F08D8E8F900405B0
:10368000060700BF00BF00BF601F874908700846DB
:10369000007800EB4000854901EBC00090ED050A81
:1036A000B8EEC00A8048007800EB800101EBC00052
:1036B0007F4901EB800080ED050A7B48007800EB34
:1036C00040007A4901EBC00090ED020AB8EEC00A52
:1036D0007548007800EB800101EBC000744901EBF4
:1036E000800080ED040A7049097801EB810202EB49
:1036F000C1016F4A02EB8100FFF718FF6A480078AA
:1037000000EB800101EBC000694901EB800090ED06
:10371000060A65480078C0EBC000664901EBC000AE
:1037200080ED050A6048007800EB40005F4901EB3E
:10373000C000B0F9020000EE100AB8EEC00A5A4804
:103740000078C0EBC0005B4901EBC00080ED040ACB
:1037500055490978C1EBC101564A02EBC100FFF798
:1037600089FE51480078C0EBC000524901EBC0000F
:1037700000E096E090ED060ABDEEC00A10EE100AD9
:1037800000B24949097801EB4101484A02EBC10105
:10379000C88186E000BF00BF00BF601E42490870BC
:1037A0000846007800EB4000434901EBC00090ED73
:1037B000050AB8EEC00A3C48007800EB800101EB36
:1037C000C0003E4901EB800080ED050A36480078D4
:1037D00000EB4000384901EBC00090ED020AB8EE62
:1037E000C00A3148007800EB800101EBC00033498A
:1037F00001EB800080ED040A2B49097801EB81027E
:1038000002EBC1012D4A02EB8100FFF78FFE264833
:10381000007800EB800101EBC000284901EB80003B
:1038200090ED060A20480078C0EBC000244901EB67
:10383000C00080ED050A1C48007800EB40001E49DE
:1038400001EBC000B0F9020000EE100AB8EEC00AA9
:1038500015480078C0EBC000194901EBC00080EDAD
:10386000040A11490978C1EBC101154A02EBC100F4
:10387000FFF700FE0C480078C0EBC000104901EBD8
:10388000C00090ED060ABDEEC00A10EE100A00B2AC
:103890000549097801EB4101074A02EBC101C881E2
:1038A00000BF00BF70BD00007C000020840300202A
:1038B000B40400206406002024030020E403002058
:1038C0008405002029B1064A12680243044B1A609D
:1038D00004E0034A12688243014B1A6070470000FB
:1038E0003038024029B1064A12680243044B1A607C
:1038F00004E0034A12688243014B1A6070470000DB
:103900004038024029B1064A12680243044B1A604B
:1039100004E0034A12688243014B1A6070470000BA
:103920002038024029B1064A12680243044B1A604B
:1039300004E0034A12688243014B1A60704700009A
:1039400044380240F0B50021002200240225002660
:103950000223324F3F6807F00C0121B1042905D042
:10396000082937D105E02E4F076036E02D4F07605C
:1039700033E02A4F3F1F3F68C7F38056274F3F1F52
:103980003F6807F03F036EB1264FB7FBF3F7DFF850
:103990008CC0ACF1040CDCF800C0CCF3881C07FB35
:1039A0000CF40CE01E4FB7FBF3F7DFF870C0ACF17E
:1039B000040CDCF800C0CCF3881C07FB0CF4174F98
:1039C0003F1F3F68C7F301477F1C7D00B4FBF5F73D
:1039D000076002E0124F076000BF00BF0F4F3F6853
:1039E00007F0F0010909104F7A5C0768D74047607B
:1039F0000A4F3F6807F4E051890A0B4F7A5C476829
:103A0000D7408760054F3F6807F46041490B064F78
:103A10007A5C4768D740C760F0BD000008380240B4
:103A20000024F40000127A00D80000200146092981
:103A300004DA274830F81100264A1080092944D2B8
:103A4000DFE801F005070608233D243E220000BF01
:103A500000BF00BF1F48008840F26442904205DD6D
:103A60001C480088A0F2644000B2704719480088E2
:103A7000B0F5677F06DA17480088C0F567704042E6
:103A800000B2F2E70020F0E700BF00BF1148008855
:103A900040F25512904201D10020E6E70D4800881F
:103AA000B0F5806F01D10120DFE70A48008840F2BD
:103AB000AA62904201D10220D7E70320D5E700BFD8
:103AC00004480088403800B2CFE747F6FF70CCE7E3
:103AD000860700207E00002010B540F225513048B6
:103AE00001F07CF800285AD040F225512C4801F012
:103AF0005AF82B4801F00EF92A4908702A48007834
:103B000030B1012819D002282ED0032842D135E047
:103B1000244800780F280CD123480078401C224903
:103B20000870204800782149087001202049087059
:103B300002E000201C49087030E01A4800781B4958
:103B40001B4A127888541A480078401C184908709B
:103B500008460078172806DB002008701248007815
:103B6000401C1149087019E00E4800780F49C875CB
:103B70000D480078401C0C4908700FE00948007897
:103B800020B900F06FF800200849087600200649A7
:103B9000087003E000200449087000BF00BF10BD9A
:103BA0000044004080000020810000206C070020BD
:103BB0008200002000B52DED028BB0EE408A1B483C
:103BC0000078401C1949087008460078642822DAF9
:103BD0009FED170AB4EEC08AF1EE10FA0ADDDFEDB0
:103BE000150A78EE600AB0EE600AFFF7E3FFB0EE68
:103BF000408A10E09FED100AB4EEC08AF1EE10FA90
:103C000009D2DFED0C0A78EE200AB0EE600AFFF769
:103C1000D1FFB0EE408A05480078401E0349087085
:103C2000B0EE480ABDEC028B00BD0000350000205C
:103C3000000034430000B443000034C310B5FEF765
:103C4000DFFFFDF70FFF3220FEF7EFFDFDF702FF6C
:103C5000FFF7A0F8FEF7E4FEFEF798FFFFF754FB2E
:103C600010BD00005D4840785C49897840EA012039
:103C7000C0F30A005A49088058488078C010574954
:103C8000C97840EA4110C0F30A00554948805348BA
:103C9000C07880115149097940EA81004F4949793A
:103CA00040EA8120C0F30A004D4988804B484079A2
:103CB00040104A49897940EAC110C0F30A004849D6
:103CC000C8804648807900114449C97940EA01100A
:103CD000C0F30A00424908814048C079C0113F49F9
:103CE000097A40EA41003D49497A40EA4120C0F35F
:103CF0000A003B4948813948407A80103749897A1F
:103D000040EA8110C0F30A00354988813348807A3F
:103D100040113249C97A40EAC1003149C8812F486F
:103D2000007B2E49497B40EA0120C0F30A002C4960
:103D300008822A48407BC0102849897B40EA41100C
:103D4000C0F30A00264948822448807B8011234919
:103D5000C97B40EA81002149097C40EA8120C0F307
:103D60000A001F4988821D48007C40101B49497C7D
:103D700040EAC110C0F30A001949C8821748407CC4
:103D800000111649897C40EA0110C0F30A00144969
:103D900008831248807CC0111049C97C40EA410068
:103DA0000E49097D40EA4120C0F30A000C494883CE
:103DB0000A48007D80100949497D40EA8110C0F31E
:103DC0000A00074988830548407D40110349897DE1
:103DD00040EAC1000249C883704700006C07002018
:103DE000860700207047000010B52DED088BF0EE1F
:103DF00040BAB0EE608AF0EE418AB0EE619AF0EE21
:103E0000429AB0EE62AAF0EE43AAB0EE63BA384826
:103E1000C0ED04BA80ED058AB1EE680A80ED000AB3
:103E200080ED019AC0ED089A80ED09AAB1EE6A0A08
:103E300080ED0C0A80ED0DBAB0EE680A00F07EFF4E
:103E40004442214640F2052000F0E8FF2849B0EE48
:103E5000490A486C01F0C2F80446214640F20120AC
:103E6000FFF7FEFBB0EE6B0A00F068FF0446214648
:103E700040F2062000F0D2FF1D49B0EE480A086C5F
:103E800001F0ACF80446214640F20220FFF7E8FBBF
:103E9000B0EE690A00F052FF0446214640F20720C6
:103EA00000F0BCFF1249B0EE4A0A886C01F096F8A7
:103EB0000446214640F20320FFF7D2FBB0EE6A0A27
:103EC00000F03CFF444221464FF4027000F0A6FF90
:103ED0000749B0EE4B0AC86C01F080F80446214651
:103EE0004FF40170FFF7BCFBBDEC088B10BD000068
:103EF000B80700202DE9FF4706460D4617464FF04C
:103F00000008002000900190029003904FF4805927
:103F100000241BE004EB440007EBC000B0F90E00E6
:103F20004DF824005DF82400B0F5805F04DD4FF407
:103F300080504DF8240007E05DF8240010F5805F04
:103F400002DA37484DF82400601C04B2042CE1DB8F
:103F50003448304418B1B0F5806F50D127E0324872
:103F60000560082030498872002008724872009865
:103F7000000AC8720098C1B22B4801730198010A67
:103F8000294841730198C1B2274881730298010AF8
:103F90002548C1730298C1B2234801740398010AED
:103FA000214841740398C1B21F48817427E01E481C
:103FB000056008201C498872002008724872009829
:103FC000000AC8720098C1B2174801730198010A2B
:103FD000154841730198C1B2134881730298010AD0
:103FE0001148C1730298C1B20F4801740398010AC5
:103FF0000D4841740398C1B20B48817400BF00BFE3
:1040000009493046FEF72FFA80460024B8F1040F24
:1040100003D1002004B0BDE8F0870120FAE70000DA
:1040200000F0FFFF009CFFBF5807002070B504465A
:104030000D4600BF4021204600F0D0FD0128F9D1F7
:104040002946204600F06BFE70BD70B506460C4652
:10405000002505E0615D3046FFF7E8FF681C85B28A
:10406000605D0028F6D170BD2DE9FF4706460D467C
:1040700017464FF000090020009001900290039035
:10408000B8464FF4805A002418E0B8F90E004DF8F5
:1040900024005DF82400B0F5805F04DD4FF480500B
:1040A0004DF8240007E05DF8240010F5805F02DA87
:1040B00037484DF82400641C08F11808042CE4DB90
:1040C0003448304418B1B0F5806F50D127E0324801
:1040D00005600820304988720020087248720098F4
:1040E000000AC8720098C1B22B4801730198010AF6
:1040F000294841730198C1B2274881730298010A87
:104100002548C1730298C1B2234801740398010A7B
:10411000214841740398C1B21F48817427E01E48AA
:10412000056008201C4988720020087248720098B7
:10413000000AC8720098C1B2174801730198010AB9
:10414000154841730198C1B2134881730298010A5E
:104150001148C1730298C1B20F4801740398010A53
:104160000D4841740398C1B20B48817400BF00BF71
:1041700009493046FEF777F981460024B9F1040F6A
:1041800003D1002004B0BDE8F0870120FAE7000069
:1041900000F0FFFF009CFFBF440700200CB500208B
:1041A000019000903448006840F480303249086043
:1041B00000BF3148006800F4003000900198401CB6
:1041C0000190009818B90198B0F5A04FF1D12A4894
:1041D000006800F4003010B10120009001E00020E0
:1041E00000900098012846D123484030006840F0F4
:1041F00080502149403108602048006840F4404028
:104200001E4908601C48083000681B4908310860D6
:104210000846006840F4004008600846006840F422
:10422000A05008601648091F0860081F006840F089
:104230008070091F086000BF0F48006800F0007020
:104240000028F9D040F205700E4908600A4808308D
:10425000006820F00300084908310860084600683B
:1042600040F00200086000BF03480830006800F01A
:104270000C000828F8D10CBD003802400070004046
:1042800008544007003C0240042808D14FF0E021C8
:10429000096941F004014FF0E022116107E04FF09D
:1042A000E021096921F004014FF0E022116170471B
:1042B0007047000010B51548006840F470001349BD
:1042C00008601348006840F00100114908600020B0
:1042D0000F49083108600E4800680E4908400C4933
:1042E00008600D48091D0860081F006820F4802040
:1042F000091F0860002006490C310860FFF74EFFD7
:104300004FF0006001498039086010BD88ED00E081
:1043100000380240FFFFF6FE1030002410B50848B8
:104320000068401C0649086000F020FD0448006851
:10433000C82804D3002002490860FEF739FC10BDEC
:10434000A800002010B50121880700F089F8E0B12D
:104350000121880700F075F80121880700F06EF848
:104360000A480088401C0949088008460088B0F5C2
:10437000FA7F08DB0648007828B10020088005494C
:104380000548FFF762FEFFF7C9FF10BD38000020A7
:1043900036000020E80000200014014010B5012282
:1043A0001146900700F06DF80121880700F04CF8E5
:1043B00010BD000010B509480068401C074908609E
:1043C00000F0E0F800F03CF904480068322804D31B
:1043D000002002490860FEF7FBFB10BDAC00002086
:1043E00010B50121074800F03BF848B1012105480C
:1043F00000F027F80121034800F020F8FFF7DAFF6A
:1044000010BD0000000C004010B501221146044808
:1044100000F037F80121024800F016F810BD000046
:10442000000C004021B1028842F08002028004E0CA
:1044300002884FF67F731A4002807047CA43028297
:104440007047CA430282704721B1028842F00102DC
:10445000028004E002884FF6FE731A400280704723
:1044600030B50246002000230024158A05EA010326
:10447000958905EA010413B10CB1012000E0002088
:1044800030BD1AB183890B43838102E083898B435A
:104490008381704700220288184B98420ED0184B37
:1044A00098420BD0B0F1804F08D0164B984205D0FF
:1044B000154B984202D0154B984204D14FF68F739A
:1044C0001A404B881A43124B984207D0114B98421E
:1044D00004D04FF6FF431A400B891A4302804B6801
:1044E000C3620B880385054B984202D0044B984267
:1044F00001D18B7A0386012383827047000001403B
:10450000000401400004004000080040000C00408E
:10451000001000400014004010B540F20520FEF7E6
:10452000C1F940F20620FEF7BDF94FF40270FEF724
:10453000B9F940F20720FEF7B5F940F20120FEF785
:10454000B1F940F20220FEF7ADF94FF40170FEF729
:10455000A9F940F20320FEF7A5F9064A4FF40071CD
:104560000548FFF7C7FC054A40F2FF110448FFF772
:104570007BFD10BD24030020006800408403002060
:104580000064004010B50820FFF750FAC0B220B117
:10459000012806D002280CD107E002202449087027
:1045A0000BE003202249087007E001202049087031
:1045B00003E000201E49087000BF00BF1C480078BF
:1045C00030B101280FD0022818D0032823D11FE0D2
:1045D0009FED180A184880ED000AFEF70DFA1648FC
:1045E00080ED010A22E09FED130A134880ED000AD6
:1045F000FEF702FA104880ED010A17E09FED0D0A60
:104600000D4880ED000A9FED0D0A80ED010A0DE0D6
:1046100000F038F80AE09FED070A074880ED000A2D
:10462000FEF7EAF9044880ED010A00BF00BF10BDA3
:10463000B000002000000000A00000200000B442F4
:1046400010B50620FFF7F2F9C0B210B1022812D15E
:1046500008E001200A4981F8E0000121084880F8BB
:10466000E1100BE00020064981F8E0000021044839
:1046700080F8E11002E0FEF77DFA00BF00BF10BD38
:10468000B807002010B52DED028B9FEDB70AB0EEF4
:10469000408A0620FFF7CAF9C0B210B1022871D1D2
:1046A0008BE00020B1490870FFF7C0F9404200EEEE
:1046B000100AB8EEC00AAE4880ED000A0220FFF7EB
:1046C000B5F900EE100AB8EEC00AAA4880ED000A5B
:1046D0000320FFF7ABF900EE100AB8EEC00AA648B7
:1046E00080ED000A90ED000ADFEDA40A20EE200A1A
:1046F000F0EE000A20EE200AA14880ED2A0A9C482C
:10470000D0ED000A60EEA00A9A4890ED001AD0EDB4
:10471000001A41EE210AB0EE600A9A4800F074FED9
:10472000984890ED000ADFED980A20EE200AF0EE9E
:10473000080A80EE201A954880ED001A90ED000AD4
:10474000934880ED000A90ED000ADFED920AB4EE86
:10475000E00AF1EE10FA2ADD864890ED000AB5EE87
:10476000C00AF1EE10FA0ED1814890ED000AB5EEC4
:10477000C00AF1EE10FA06D19FED870A844880ED59
:10478000010A19E0DFE07A48D0ED000A794890ED9F
:10479000000A00F0E3FC9FED811AC0EE010A9FEDD4
:1047A000800A20EE800A7A4880ED010A04E09FED3D
:1047B0007A0A774880ED010AD2E002206B4908703E
:1047C0000020FFF733F9404200EE100AB8EEC00AAD
:1047D000674880ED000A0220FFF728F900EE100A72
:1047E000B8EEC00A634880ED000A0320FFF71EF907
:1047F00000EE100AB8EEC00A5F4880ED000A90EDA6
:10480000000ADFED5E0A20EE200AF0EE000A20EE3C
:10481000200A5B4880ED2A0A5548D0ED000A60EE78
:10482000A00A544890ED001AD0ED001A41EE210A7A
:10483000B0EE600A534800F0E7FD524890ED000AE0
:10484000DFED510A20EE200AF0EE080A80EE201A71
:104850004E4880ED001A90ED000A4D4880ED000AA8
:1048600090ED000ADFED4B0AB4EEE00AF1EE10FA2B
:1048700063DD404890ED000AB5EEC00AF1EE10FA93
:104880000DD13B4890ED000AB5EEC00AF1EE10FAEA
:1048900005D19FED440A3E4880ED010A52E03548BB
:1048A00090ED000AB5EEC00AF1EE10FA1BDB3048BD
:1048B000D0ED000A2F4890ED000A00F04FFC9FED6C
:1048C000371AC0EE010A9FED361A9FED350A10EE39
:1048D000810AB0EE408AB0EE480AFFF76BF92C4827
:1048E00080ED010A2EE0234890ED000AB5EEC00AE3
:1048F000F1EE10FA1BD81E48D0ED000A1D4890EDCD
:10490000000A00F02BFC9FED251AC0EE010A9FED76
:10491000241A9FED230A00EE810AB0EE408AB0EE21
:10492000480AFFF747F91A4880ED010A0AE09FEDAF
:104930001D0A174880ED010A04E09FED1A0A144889
:1049400080ED010A0CE00120084908709FED060A7D
:104950000F4880ED000A9FED100A80ED010A00BFAC
:1049600000BFBDEC028B10BD000000009C000020C9
:104970008C0000209000002084000020270F303C95
:10498000B8070020940000202D6A514098000020B4
:10499000A00000200AD7233C0000B442DA0F4940AF
:1049A000000034430000B4C210B52B480078F8B1C1
:1049B000012839D002284CD12848D0ED2A1AB0EE6F
:1049C000611AD0ED291AF0EE610AD0ED281AB0EE86
:1049D000610AFEF7D5FC224A4FF400712148FFF727
:1049E00089FA214A40F2FF112048FFF73DFB30E0F1
:1049F0001A48D0ED2A1AB0EE611AD0ED291AF0EE5D
:104A0000610AD0ED281AB0EE610AFEF7B9FC144A2B
:104A10004FF400711348FFF76DFA134A40F2FF118B
:104A20001248FFF721FB14E09FED111ADFED110A88
:104A30009FED0F0AFEF7A4FC094A4FF400710948E4
:104A4000FFF758FA084A40F2FF110848FFF70CFB3D
:104A500000BF00BF10BD00009C000020B807002070
:104A6000240300200068004084030020006400400C
:104A7000000000000000B44210B50446FDF7BCFF82
:104A8000D4ED030A30EEC00A84ED030AFDF7B4FF4B
:104A9000D4ED010A30EEC00A84ED010AFDF7ACFF47
:104AA000D4ED050A30EEC00A84ED050AFDF7A4FF37
:104AB000D4ED070A30EEC00A84ED070A04F10C00B9
:104AC000FCF7ECFC201DFCF7E9FC04F11400FCF7FA
:104AD000E5FC04F11C00FCF7E1FC10BD10B5044638
:104AE00094ED030ADFED160A30EE600A84ED030A46
:104AF00094ED010ADFED120A30EE600A84ED010A3E
:104B000094ED050ADFED0E0A30EE600A84ED050A29
:104B100094ED070ADFED0A0A30EE600A84ED070A19
:104B200004F10C00FCF7BAFC201DFCF7B7FC04F103
:104B30001400FCF7B3FC04F11C00FCF7AFFC10BD43
:104B40000000B442B0EE401A31EE600ADFED0E1AFA
:104B5000B4EEE10AF1EE10FA04DD9FED0C0A31EE3D
:104B6000400A704731EE600ADFED091AB4EEE10A3F
:104B7000F1EE10FA04D29FED050A31EE000AF0E7DB
:104B8000B0EE410AEDE70000000034430000B443FA
:104B9000000034C310B5FEF751F810BD10B5FEF794
:104BA0009BFF10BD704710B50022002340F66A1429
:104BB000A14200D100BF0A1201249440A3B2DC43F9
:104BC000048010BD21B1828942F40052828104E048
:104BD00082894DF6FF731A40828170470246002099
:104BE000B1F5007F00D100BF13880B400BB101204D
:104BF00000E000207047F0B50346002400260025A1
:104C0000002040F66A17B94200D100BF1846C1F330
:104C1000421401F01F06012707FA06F5012C01D105
:104C20000C3004E0022C01D1103000E014301AB135
:104C300007682F43076002E00768AF430760F0BDD5
:104C40002DE9FF4705460E460024A14600BFA046B9
:104C5000B08900B100BF2C8A24F44054F08804438A
:104C60002C82AC8941F20C608443B08831890843BE
:104C7000718908430443AC81AC8A24F44074B08940
:104C80000443AC826846FEF75DFE2048854202D0B0
:104C90001F48854202D1DDF80C9001E0DDF8089054
:104CA000A88900F4004040B109EBC90000EB0910ED
:104CB00031684900B0FBF1F707E009EBC90000EBF0
:104CC000091031688900B0FBF1F76420B7FBF0F000
:104CD00004012009642101FB1078A88900F4004038
:104CE00040B1322000EBC800B0FBF1F000F007004B
:104CF000044308E0322000EB08106421B0FBF1F01F
:104D000000F00F0004432C81BDE8FF870010014034
:104D10000014014001468888C0F308007047C1F3C1
:104D200008028280704700BFFEE703468B4203D330
:104D3000934201D8012070470020FCE79FED081A3C
:104D4000C0EE010A9FED071A60EE810A9FED061A78
:104D500060EE810AFDEEE00A10EE900A7047000056
:104D600058E9DB43000070422CA0994110B522485D
:104D7000007830B1012819D0022805D0032836D197
:104D800005E0FFF7C9FB35E0FFF7C6FB32E01B4843
:104D900090ED000A1A4880ED280A184890ED010AA3
:104DA000174880ED290AFFF7FFFD23E0134890ED37
:104DB000000A134880ED280A104890ED010A1048B7
:104DC00080ED290A9FED0F1ADFED0F0A9FED0D0A06
:104DD000FEF7D6FA0D4A4FF400710D48FFF78AF836
:104DE0000C4A40F2FF110C48FFF73EF902E0FFF7D2
:104DF00093FB00BF00BF10BDB0000020A00000204A
:104E0000B8070020000000000000B4422403002086
:104E100000680040840300200064004070B5044630
:104E20000D4629B22046FEF75BF9A4F201200828BE
:104E300056D2DFE800F0565758590405060700BF60
:104E400000BF00BF601F514908700846007800EBA2
:104E500040004F4901EBC000B0F9100000EE100A0D
:104E6000B8EEC00A49480078C0EBC000494901EBE0
:104E7000C00080ED050A4548007800EB4000444939
:104E800001EBC000B0F9020000EE100AB8EEC00A53
:104E90003E480078C0EBC0003E4901EBC00080ED09
:104EA000040A3A490978C1EBC1013A4A02EBC10050
:104EB000FEF7E0FA35480078C0EBC000354901EB59
:104EC000C00090ED060ABDEEC00A10EE100A00B256
:104ED0002E49097801EB41012D4A02EBC101C8813D
:104EE00051E000BF00BF00BF601E2849087008469F
:104EF000007800EB4000284901EBC000B0F9100039
:104F000000EE100AB8EEC00A20480078C0EBC000DE
:104F1000224901EBC00080ED050A1C48007800EB37
:104F200040001D4901EBC000B0F9020000EE100A7C
:104F3000B8EEC00A15480078C0EBC000174901EB75
:104F4000C00080ED040A11490978C1EBC101134A80
:104F500002EBC100FEF78EFA0C480078C0EBC000EF
:104F60000C4901EBC00090ED060ABDEEC00A10EE40
:104F7000100A00B20549097801EB4101064A02EB2B
:104F8000C101C88100BF00BF70BD00007B000020D0
:104F900084030020640600202403002084050020F0
:104FA00000EE100AB8EEC00A9FED091AC0EE010A21
:104FB00000EE101AB8EEC00A70EEC00A9FED051A96
:104FC00080EE810ADFED040A20EE200A704700001F
:104FD00000F8FF452D2D25430000B4430146DFEDC9
:104FE0000A0A80EE201A00EE901AF8EEE00ADFEDD1
:104FF000071A41EE210A9FED061A60EE810AFDEEC6
:10500000E00A10EE900A70470000B4432D2D2543AE
:1050100000F8FF450FB410B502A8FFF72DFD02A858
:10502000FFF75CFD334890ED000A04A8FDF70AFD88
:10503000314890ED000A02A8FDF704FD2F4890EDDD
:10504000000A06A8FDF7FEFC2D4890ED000A08A80E
:10505000FDF7F8FCDDED050AB0EE600A2548D0ED5D
:10506000000AFFF76FFD234880ED000ADDED030A1B
:10507000B0EE600A2048D0ED000AFFF763FD1E483D
:1050800080ED000ADDED070AB0EE600A1B48D0EDA6
:10509000000AFFF757FD194880ED000ADDED090A07
:1050A000B0EE600A1648D0ED000AFFF74BFD144839
:1050B00080ED000ADDED080AB0EE603ADDED060A8B
:1050C000B0EE602ADDED020AB0EE601ADDED040AF2
:1050D000B0EE600AD0ED003A0848D0ED002A06484C
:1050E000D0ED001A0348D0ED000AFEF77DFE10BC9B
:1050F0005DF814FB24000020280000202C00002074
:105100003000002003B401984100009850EAC1200B
:1051100018BF04204A0D18BF40F0010040F2FF7292
:10512000B2EB515F08BF40F00200012808BF052024
:1051300002B070474100080218BF04200A0E18BFD1
:1051400040F001004FF07F4232EA010108BF40F019
:105150000200012808BF05207047000010EE100A69
:1051600010B510EE901A4FF0684202EB40032DED9F
:10517000028BB3F1654F3CBF02EB4102B2F1654FC8
:105180007CD200BFC0F3C753C1F3C7529A1A1B2A7F
:1051900009DD10F0004F14BF9FED6E0A9FED6E0AFF
:1051A000BDEC028B10BD12F11A0F1BDA11F0004F8B
:1051B00009D010F0004F0CBF9FED680A9FED680A00
:1051C000BDEC028B10BD80EE208A18EE100AFFF7AE
:1051D000B1FF042808BF00F0F7F8B0EE480ABDECB4
:1051E000028B10BD4200B2EB410F37D910F0004FD7
:1051F00019BFDFED5C1A9FED5C1ADFED5C1A9FEDC5
:105200005C1AB0EE602A0A46F1EE400A80F00041D6
:10521000B0EE420A10460A1A5200B2F1807F34D230
:10522000484010F0004FDFED532A9FED533A1DBF69
:10523000BEEE002A71EEE21A31EE431AB6EE002AF3
:1052400004BF71EEA21A31EE031AF0EE402A42EECC
:10525000602A40EE020A82EEA02A18E011F0004F08
:1052600004BF9FED461AF0EE411AD4D010F0004F63
:105270001CBFDFED431A9FED431A00E026E004BF98
:10528000DFED411A9FED411AC5E780EE202A22EE9C
:10529000020ADFED3F0ADFED3F2ABDEC028B40EE54
:1052A000202ADFED3D0A40EE220ADFED3C2A40EEE7
:1052B000202ADFED3B0A40EE220A22EE000A00EE31
:1052C000201A31EE020A30EE210A10BD4FF07F4263
:1052D000B2EB400F28BFB2EB410F05D2BDEC028B01
:1052E000BDE8104000F06CB840EA01035B0008BF65
:1052F00041F0FF410BD0B2EB400F08BFB2EB410FC2
:1053000008D120F0804000EE100A21F0804100EE2C
:10531000901A37E7B2EB400F12BF5FEA410240F04C
:10532000FF4001F000413FF42DAF4A0092EA4003F4
:105330003FF528AF002AACBF9FED1A1A9FED1A1A4D
:1053400020EE010A60EE810A10EE100A10EE901AAB
:1053500018E70000DB0FC9BFDB0FC93FDB0F494077
:10536000DB0F49C00000C9BF22AAFDB90000C93F38
:1053700022AAFD390060ED3EC30ACE3700000000CE
:10538000000049C022AA7DBA0000494022AA7D3A05
:105390002DAD65BD8FB8D53D0FB511BE61C84C3E72
:1053A000A8AAAABE0000804F0000802F2DED020B9E
:1053B000019820F0004001909DED000B02B0704775
:1053C00030EE200A704700009FED020A20EE000A2E
:1053D0007047000000000010D0ED000AF4EEC00A93
:1053E000F1EE10FA01DD80ED000AD0ED000AB1EE19
:1053F000401AF4EEC10AF1EE10FA03D2F1EE400ABF
:10540000C0ED000A704700000146B5EEC00AF1EE9B
:1054100010FA05DDF1EEC00AC1ED000A0020704768
:10542000DFED030AC1ED000A4FF0FF30F7E700009F
:105430000000000010B52DED068BB0EE408A18EE8E
:10544000100A00F0C7FB41EC1A0BB5EEC08AF1EE72
:1054500010FA02DD9FED0D1B01E09FED0E1BB0EE7B
:10546000410AF0EE610A53EC102B51EC1A0B00F0DC
:105470004DF941EC190B00F017F908EE100ABDEEDA
:10548000C80A10EE100ABDEC068B10BD000000002B
:105490000000E03F000000000000E0BF2DED108B99
:1054A000AAB0FDF7B4F9D1E00520FDF7BEF9601C04
:1054B000C4B2204604EBD0714910A4EB410111B9EC
:1054C0006348FBF7C5FF4FF4FA7094FBF0F100FB63
:1054D00011400028E7D15F4908705F4890ED000A4D
:1054E00010EE101A084600F075FB41EC180B5B48F3
:1054F00090ED0D0A10EE101A084600F06BFB41EC1F
:10550000190B564890ED090A10EE101A084600F0E3
:1055100061FB41EC1A0B514890ED050A10EE101A90
:10552000084600F057FB41EC1B0B4C4890ED010A7C
:1055300010EE101A084600F04DFB41EC1C0B4748DA
:1055400090ED0F0A10EE101A084600F043FB41ECF4
:105550001D0B424890ED0B0A10EE101A084600F0A1
:1055600039FB41EC1E0B3D4890ED070A10EE101A76
:10557000084600F02FFB41EC1F0B384890ED030A62
:1055800010EE101A084600F025FBCDE9280134483A
:1055900090ED010A10EE101A084600F01BFBCDE951
:1055A00026012F4890ED000A10EE101A084600F070
:1055B00011FBCDE924012B48006800F00BFBCDE97D
:1055C00022012948006800F005FBCDE920012748A9
:1055D000006800F0FFFACDE91E012548006800F0E0
:1055E000F9FACDE91C018DED1A8B8DED189B8DED2F
:1055F00016AB8DED14BB8DED12CB8DED10DB8DED6B
:105600000EEB8DED0CFB9DED280B8DED0A0B9DED4A
:10561000260B8DED080B9DED240B8DED060B9DEDFE
:10562000220B8DED040B9DED200B8DED020B9DEDFE
:105630001E0B8DED000B9DED1C0B53EC102B0D493B
:105640000D48FAF7F5FE0120024908702CE700002A
:10565000A408002036000020DC020020B80700204B
:10566000A0000020900000208C0000208800002076
:105670008400002080650008E800002010B50029A3
:105680000AD00878002807D005487844FBF7D0FAFC
:10569000002801D0002010BD0248784410BD000051
:1056A00002100000FA0F000021F00042A2F1605247
:1056B000B2F5801F01F0004328BFD2F17F6C0BD9F7
:1056C0005FEA001C43EAC20242EB507018BF704709
:1056D00028BF20F001007047B2F5801FBCBF1846FC
:1056E00070474FEA410C1CF5001F02D2084600F03B
:1056F000E7BA70B500F0FAF800000089FFF7F6BFCE
:105700004FF00040A0F580007047000010B591EA0E
:10571000030F48BF83F0004300F17A81841A71EBD4
:10572000030C05D2121943EB0C03001B61EB0C01B7
:10573000DFF824E14FEA1154A4EB135C1EEA430F97
:1057400018BF9EEA445F73D023EA0E03DCF1200EFB
:1057500021EA045143F4801332D322FA0CFE10EBF9
:105760000E0023FA0CFE41EB0E01CCF1200E03FAE1
:105770000EFE10EB0E0051F10001B1F5801FCCF1CF
:10578000200E32D201EB045112FA0EF2BDE81040A5
:1057900058BF7047401C38BF5FEA420218BF7047CD
:1057A000002814BF20F0010041F100014FEA41033D
:1057B00013F5001F38BF7047A1F1C04100F0E4B8F5
:1057C000012A43EB0302ACF1200CDCF11F0E32BFC7
:1057D0004FF0000E23FA0CF310EB030041EB0451E1
:1057E000B4EB115FD0D0A1EB045101F58011490851
:1057F0005FEA300001EB04510ED350F1000038BFD6
:1058000012FA0EFE08D1BDE81040C9E7401C38BFAF
:105810005FEA4202CAD1C3E7BDE810404FEA410344
:1058200013F5001F38BF7047A1F1C04100F0ACB8BC
:105830009EEA445F08D011EA5E0FBDE8104004BF45
:1058400001F0004100207047BDE8104070B500F045
:105850004DF800BF64FBBE3E0000E0FF491058BF9A
:10586000C1F140415B1058BFC3F140438B42EFF39D
:105870000080704751EA030C17D41CF5801F58BFF5
:10588000BCF5801F00F10680994218BF704708BF21
:105890009042704707D711F5801F58BF13F5801F3E
:1058A00019D499427047894270471CF5801F08D56A
:1058B000BCF5801FF7D58B4218BF704708BF8242E6
:1058C00070474FF4001C1CEB410F38BF1CEB430F1B
:1058D00001D28B42704770B500F008F8922449005D
:1058E0004FF000514FF08053FFF7B8BF0EF1020E9A
:1058F0002EF0030E5EF8046B364205D4012A43EB0A
:10590000030515F5001F12D8012841EB010C1CF509
:10591000001F0CD80ED14FEAD17C15F5001F0CEBFF
:105920004C0C0CF1020C08BF4CEBD37C04E04FF0A4
:10593000080C01E04FEAD37C0CEB4C0526FA05F687
:1059400006F00706B6F1040C06D20EEB860CBDE895
:1059500070404CF0010C6047DFE80CF0090B0202CC
:105960004FF000414FF00000A1F5002170BD194635
:105970001046012851EB010418BFD4F5001484BF70
:10598000002001F0004170BD0808A0F500114FEAA9
:105990003101704753EA010C17D41CF5801F58BF22
:1059A000BCF5801F00F106808B4218BF704708BF0E
:1059B0008242704707D713F5801F58BF11F5801F2B
:1059C00019D48B4270479B4270471CF5801F08D545
:1059D000BCF5801FF7D5994218BF704708BF9042A9
:1059E00070474FF4001C1CEB430F38BF1CEB410FFA
:1059F00001D2994270470FB40CBC03BCFFF76BBFD8
:105A000010B591EA030F48BF83F000433FF586AE1F
:105A1000841A71EB030C07D212198CF0004C43EB83
:105A20000C03001B61EB0C01DFF8A4E14FEA1154F9
:105A3000A4EB135C1EEA430F18BF9EEA445F00F01C
:105A4000B08023EA6E03524221EA0451C3EB6E0395
:105A500038BF5B1EDCF1200E25D322FA0CFE10EBC2
:105A60000E0043FA0CFE41EB0E01CCF1200E03FABE
:105A70000EFE10EB0E0051F10001CCF1200E29D4E6
:105A800012FA0EF201EB0451BDE8104058BF704706
:105A9000401C1CBFB2F1004F704700280CBF491CCE
:105AA00020F00100704712EB020E43EB030218BF17
:105AB0004FF0010E4EEA4202ACF1200CDCF11E0E5A
:105AC00054D943FA0CFE10EB0E0051F1FF31CCF12A
:105AD0001E0ED5D50EF1010E12FA0EFE404141EB1D
